{
  "_format": "hh-sol-artifact-1",
  "contractName": "CrowdFunding",
  "sourceName": "contracts/CrowdFunding.sol",
  "abi": [
    {
      "inputs": [
        {
          "internalType": "uint256",
          "name": "",
          "type": "uint256"
        }
      ],
      "name": "campaigns",
      "outputs": [
        {
          "internalType": "address",
          "name": "owner",
          "type": "address"
        },
        {
          "internalType": "string",
          "name": "title",
          "type": "string"
        },
        {
          "internalType": "string",
          "name": "description",
          "type": "string"
        },
        {
          "internalType": "uint256",
          "name": "target",
          "type": "uint256"
        },
        {
          "internalType": "uint256",
          "name": "deadline",
          "type": "uint256"
        },
        {
          "internalType": "uint256",
          "name": "amountCollected",
          "type": "uint256"
        },
        {
          "internalType": "string",
          "name": "image",
          "type": "string"
        }
      ],
      "stateMutability": "view",
      "type": "function"
    },
    {
      "inputs": [
        {
          "internalType": "address",
          "name": "_owner",
          "type": "address"
        },
        {
          "internalType": "string",
          "name": "_title",
          "type": "string"
        },
        {
          "internalType": "string",
          "name": "_description",
          "type": "string"
        },
        {
          "internalType": "uint256",
          "name": "_target",
          "type": "uint256"
        },
        {
          "internalType": "uint256",
          "name": "_deadline",
          "type": "uint256"
        },
        {
          "internalType": "string",
          "name": "image_url",
          "type": "string"
        }
      ],
      "name": "createCampaign",
      "outputs": [
        {
          "internalType": "uint256",
          "name": "",
          "type": "uint256"
        }
      ],
      "stateMutability": "nonpayable",
      "type": "function"
    },
    {
      "inputs": [
        {
          "internalType": "uint256",
          "name": "_id",
          "type": "uint256"
        }
      ],
      "name": "deleteCampaign",
      "outputs": [],
      "stateMutability": "nonpayable",
      "type": "function"
    },
    {
      "inputs": [
        {
          "internalType": "uint256",
          "name": "_id",
          "type": "uint256"
        }
      ],
      "name": "donateToCampaign",
      "outputs": [],
      "stateMutability": "payable",
      "type": "function"
    },
    {
      "inputs": [],
      "name": "getCampaigns",
      "outputs": [
        {
          "components": [
            {
              "internalType": "address",
              "name": "owner",
              "type": "address"
            },
            {
              "internalType": "string",
              "name": "title",
              "type": "string"
            },
            {
              "internalType": "string",
              "name": "description",
              "type": "string"
            },
            {
              "internalType": "uint256",
              "name": "target",
              "type": "uint256"
            },
            {
              "internalType": "uint256",
              "name": "deadline",
              "type": "uint256"
            },
            {
              "internalType": "uint256",
              "name": "amountCollected",
              "type": "uint256"
            },
            {
              "internalType": "address[]",
              "name": "donators",
              "type": "address[]"
            },
            {
              "internalType": "uint256[]",
              "name": "donations",
              "type": "uint256[]"
            },
            {
              "internalType": "string",
              "name": "image",
              "type": "string"
            }
          ],
          "internalType": "struct CrowdFunding.Campaign[]",
          "name": "",
          "type": "tuple[]"
        }
      ],
      "stateMutability": "view",
      "type": "function"
    },
    {
      "inputs": [
        {
          "internalType": "uint256",
          "name": "_id",
          "type": "uint256"
        }
      ],
      "name": "getDonators",
      "outputs": [
        {
          "internalType": "address[]",
          "name": "",
          "type": "address[]"
        },
        {
          "internalType": "uint256[]",
          "name": "",
          "type": "uint256[]"
        }
      ],
      "stateMutability": "view",
      "type": "function"
    },
    {
      "inputs": [],
      "name": "numberOfCampaigns",
      "outputs": [
        {
          "internalType": "uint256",
          "name": "",
          "type": "uint256"
        }
      ],
      "stateMutability": "view",
      "type": "function"
    }
  ],
  "bytecode": "0x6080604052600060015534801561001557600080fd5b50611c28806100256000396000f3fe6080604052600436106100705760003560e01c806342a4fda81161004e57806342a4fda814610121578063759701931461013d5780639943e3a114610166578063a6b03633146101a357610070565b806307ca140d146100755780630fa91fa9146100a0578063141961bc146100de575b600080fd5b34801561008157600080fd5b5061008a6101ce565b6040516100979190610db4565b60405180910390f35b3480156100ac57600080fd5b506100c760048036038101906100c29190610e0f565b6101d4565b6040516100d5929190610fea565b60405180910390f35b3480156100ea57600080fd5b5061010560048036038101906101009190610e0f565b6102e4565b60405161011897969594939291906110c0565b60405180910390f35b61013b60048036038101906101369190610e0f565b6104de565b005b34801561014957600080fd5b50610164600480360381019061015f9190610e0f565b61063e565b005b34801561017257600080fd5b5061018d600480360381019061018891906112a5565b6107a6565b60405161019a9190610db4565b60405180910390f35b3480156101af57600080fd5b506101b86108ca565b6040516101c59190611651565b60405180910390f35b60015481565b6060806000808481526020019081526020016000206006016000808581526020019081526020016000206007018180548060200260200160405190810160405280929190818152602001828054801561028257602002820191906000526020600020905b8160009054906101000a900473ffffffffffffffffffffffffffffffffffffffff1673ffffffffffffffffffffffffffffffffffffffff1681526020019060010190808311610238575b50505050509150808054806020026020016040519081016040528092919081815260200182805480156102d457602002820191906000526020600020905b8154815260200190600101908083116102c0575b5050505050905091509150915091565b60006020528060005260406000206000915090508060000160009054906101000a900473ffffffffffffffffffffffffffffffffffffffff169080600101805461032d906116a2565b80601f0160208091040260200160405190810160405280929190818152602001828054610359906116a2565b80156103a65780601f1061037b576101008083540402835291602001916103a6565b820191906000526020600020905b81548152906001019060200180831161038957829003601f168201915b5050505050908060020180546103bb906116a2565b80601f01602080910402602001604051908101604052809291908181526020018280546103e7906116a2565b80156104345780601f1061040957610100808354040283529160200191610434565b820191906000526020600020905b81548152906001019060200180831161041757829003601f168201915b50505050509080600301549080600401549080600501549080600801805461045b906116a2565b80601f0160208091040260200160405190810160405280929190818152602001828054610487906116a2565b80156104d45780601f106104a9576101008083540402835291602001916104d4565b820191906000526020600020905b8154815290600101906020018083116104b757829003601f168201915b5050505050905087565b60003490506000806000848152602001908152602001600020905080600601339080600181540180825580915050600190039060005260206000200160009091909190916101000a81548173ffffffffffffffffffffffffffffffffffffffff021916908373ffffffffffffffffffffffffffffffffffffffff1602179055508060070182908060018154018082558091505060019003906000526020600020016000909190919091505560008160000160009054906101000a900473ffffffffffffffffffffffffffffffffffffffff1673ffffffffffffffffffffffffffffffffffffffff16836040516105d390611704565b60006040518083038185875af1925050503d8060008114610610576040519150601f19603f3d011682016040523d82523d6000602084013e610615565b606091505b5050905080156106385782826005015461062f9190611748565b82600501819055505b50505050565b600080600083815260200190815260200160002090508060000160009054906101000a900473ffffffffffffffffffffffffffffffffffffffff1673ffffffffffffffffffffffffffffffffffffffff163373ffffffffffffffffffffffffffffffffffffffff16146106e6576040517f08c379a00000000000000000000000000000000000000000000000000000000081526004016106dd906117ee565b60405180910390fd5b600080838152602001908152602001600020600080820160006101000a81549073ffffffffffffffffffffffffffffffffffffffff02191690556001820160006107309190610c9a565b6002820160006107409190610c9a565b6003820160009055600482016000905560058201600090556006820160006107689190610cda565b6007820160006107789190610cfb565b6008820160006107889190610c9a565b50506001600081548092919061079d9061180e565b91905055505050565b60004283116107ea576040517f08c379a00000000000000000000000000000000000000000000000000000000081526004016107e1906118a9565b60405180910390fd5b600080600060015481526020019081526020016000209050878160000160006101000a81548173ffffffffffffffffffffffffffffffffffffffff021916908373ffffffffffffffffffffffffffffffffffffffff160217905550868160010190816108569190611a75565b50858160020190816108689190611a75565b508481600301819055508381600401819055508281600801908161088c9190611a75565b5060008160050181905550600160008154809291906108aa90611b47565b9190505550600180546108bd9190611b8f565b9150509695505050505050565b6060600060015467ffffffffffffffff8111156108ea576108e961117a565b5b60405190808252806020026020018201604052801561092357816020015b610910610d1c565b8152602001906001900390816109085790505b50905060005b600154811015610c92576000806000838152602001908152602001600020905080604051806101200160405290816000820160009054906101000a900473ffffffffffffffffffffffffffffffffffffffff1673ffffffffffffffffffffffffffffffffffffffff1673ffffffffffffffffffffffffffffffffffffffff1681526020016001820180546109bc906116a2565b80601f01602080910402602001604051908101604052809291908181526020018280546109e8906116a2565b8015610a355780601f10610a0a57610100808354040283529160200191610a35565b820191906000526020600020905b815481529060010190602001808311610a1857829003601f168201915b50505050508152602001600282018054610a4e906116a2565b80601f0160208091040260200160405190810160405280929190818152602001828054610a7a906116a2565b8015610ac75780601f10610a9c57610100808354040283529160200191610ac7565b820191906000526020600020905b815481529060010190602001808311610aaa57829003601f168201915b5050505050815260200160038201548152602001600482015481526020016005820154815260200160068201805480602002602001604051908101604052809291908181526020018280548015610b7357602002820191906000526020600020905b8160009054906101000a900473ffffffffffffffffffffffffffffffffffffffff1673ffffffffffffffffffffffffffffffffffffffff1681526020019060010190808311610b29575b5050505050815260200160078201805480602002602001604051908101604052809291908181526020018280548015610bcb57602002820191906000526020600020905b815481526020019060010190808311610bb7575b50505050508152602001600882018054610be4906116a2565b80601f0160208091040260200160405190810160405280929190818152602001828054610c10906116a2565b8015610c5d5780601f10610c3257610100808354040283529160200191610c5d565b820191906000526020600020905b815481529060010190602001808311610c4057829003601f168201915b505050505081525050838381518110610c7957610c78611bc3565b5b6020026020010181905250508080600101915050610929565b508091505090565b508054610ca6906116a2565b6000825580601f10610cb85750610cd7565b601f016020900490600052602060002090810190610cd69190610d7e565b5b50565b5080546000825590600052602060002090810190610cf89190610d7e565b50565b5080546000825590600052602060002090810190610d199190610d7e565b50565b604051806101200160405280600073ffffffffffffffffffffffffffffffffffffffff16815260200160608152602001606081526020016000815260200160008152602001600081526020016060815260200160608152602001606081525090565b5b80821115610d97576000816000905550600101610d7f565b5090565b6000819050919050565b610dae81610d9b565b82525050565b6000602082019050610dc96000830184610da5565b92915050565b6000604051905090565b600080fd5b600080fd5b610dec81610d9b565b8114610df757600080fd5b50565b600081359050610e0981610de3565b92915050565b600060208284031215610e2557610e24610dd9565b5b6000610e3384828501610dfa565b91505092915050565b600081519050919050565b600082825260208201905092915050565b6000819050602082019050919050565b600073ffffffffffffffffffffffffffffffffffffffff82169050919050565b6000610e9382610e68565b9050919050565b610ea381610e88565b82525050565b6000610eb58383610e9a565b60208301905092915050565b6000602082019050919050565b6000610ed982610e3c565b610ee38185610e47565b9350610eee83610e58565b8060005b83811015610f1f578151610f068882610ea9565b9750610f1183610ec1565b925050600181019050610ef2565b5085935050505092915050565b600081519050919050565b600082825260208201905092915050565b6000819050602082019050919050565b610f6181610d9b565b82525050565b6000610f738383610f58565b60208301905092915050565b6000602082019050919050565b6000610f9782610f2c565b610fa18185610f37565b9350610fac83610f48565b8060005b83811015610fdd578151610fc48882610f67565b9750610fcf83610f7f565b925050600181019050610fb0565b5085935050505092915050565b600060408201905081810360008301526110048185610ece565b905081810360208301526110188184610f8c565b90509392505050565b61102a81610e88565b82525050565b600081519050919050565b600082825260208201905092915050565b60005b8381101561106a57808201518184015260208101905061104f565b60008484015250505050565b6000601f19601f8301169050919050565b600061109282611030565b61109c818561103b565b93506110ac81856020860161104c565b6110b581611076565b840191505092915050565b600060e0820190506110d5600083018a611021565b81810360208301526110e78189611087565b905081810360408301526110fb8188611087565b905061110a6060830187610da5565b6111176080830186610da5565b61112460a0830185610da5565b81810360c08301526111368184611087565b905098975050505050505050565b61114d81610e88565b811461115857600080fd5b50565b60008135905061116a81611144565b92915050565b600080fd5b600080fd5b7f4e487b7100000000000000000000000000000000000000000000000000000000600052604160045260246000fd5b6111b282611076565b810181811067ffffffffffffffff821117156111d1576111d061117a565b5b80604052505050565b60006111e4610dcf565b90506111f082826111a9565b919050565b600067ffffffffffffffff8211156112105761120f61117a565b5b61121982611076565b9050602081019050919050565b82818337600083830152505050565b6000611248611243846111f5565b6111da565b90508281526020810184848401111561126457611263611175565b5b61126f848285611226565b509392505050565b600082601f83011261128c5761128b611170565b5b813561129c848260208601611235565b91505092915050565b60008060008060008060c087890312156112c2576112c1610dd9565b5b60006112d089828a0161115b565b965050602087013567ffffffffffffffff8111156112f1576112f0610dde565b5b6112fd89828a01611277565b955050604087013567ffffffffffffffff81111561131e5761131d610dde565b5b61132a89828a01611277565b945050606061133b89828a01610dfa565b935050608061134c89828a01610dfa565b92505060a087013567ffffffffffffffff81111561136d5761136c610dde565b5b61137989828a01611277565b9150509295509295509295565b600081519050919050565b600082825260208201905092915050565b6000819050602082019050919050565b600082825260208201905092915050565b60006113ce82611030565b6113d881856113b2565b93506113e881856020860161104c565b6113f181611076565b840191505092915050565b600082825260208201905092915050565b600061141882610e3c565b61142281856113fc565b935061142d83610e58565b8060005b8381101561145e5781516114458882610ea9565b975061145083610ec1565b925050600181019050611431565b5085935050505092915050565b600082825260208201905092915050565b600061148782610f2c565b611491818561146b565b935061149c83610f48565b8060005b838110156114cd5781516114b48882610f67565b97506114bf83610f7f565b9250506001810190506114a0565b5085935050505092915050565b6000610120830160008301516114f36000860182610e9a565b506020830151848203602086015261150b82826113c3565b9150506040830151848203604086015261152582826113c3565b915050606083015161153a6060860182610f58565b50608083015161154d6080860182610f58565b5060a083015161156060a0860182610f58565b5060c083015184820360c0860152611578828261140d565b91505060e083015184820360e0860152611592828261147c565b9150506101008301518482036101008601526115ae82826113c3565b9150508091505092915050565b60006115c783836114da565b905092915050565b6000602082019050919050565b60006115e782611386565b6115f18185611391565b935083602082028501611603856113a2565b8060005b8581101561163f578484038952815161162085826115bb565b945061162b836115cf565b925060208a01995050600181019050611607565b50829750879550505050505092915050565b6000602082019050818103600083015261166b81846115dc565b905092915050565b7f4e487b7100000000000000000000000000000000000000000000000000000000600052602260045260246000fd5b600060028204905060018216806116ba57607f821691505b6020821081036116cd576116cc611673565b5b50919050565b600081905092915050565b50565b60006116ee6000836116d3565b91506116f9826116de565b600082019050919050565b600061170f826116e1565b9150819050919050565b7f4e487b7100000000000000000000000000000000000000000000000000000000600052601160045260246000fd5b600061175382610d9b565b915061175e83610d9b565b925082820190508082111561177657611775611719565b5b92915050565b7f4f6e6c79207468652063616d706169676e206f776e65722063616e2064656c6560008201527f746520746869732063616d706169676e00000000000000000000000000000000602082015250565b60006117d860308361103b565b91506117e38261177c565b604082019050919050565b60006020820190508181036000830152611807816117cb565b9050919050565b600061181982610d9b565b91506000820361182c5761182b611719565b5b600182039050919050565b7f54686520646561646c696e652073686f756c642062652061206461746520696e60008201527f2074686520667574757265000000000000000000000000000000000000000000602082015250565b6000611893602b8361103b565b915061189e82611837565b604082019050919050565b600060208201905081810360008301526118c281611886565b9050919050565b60008190508160005260206000209050919050565b60006020601f8301049050919050565b600082821b905092915050565b60006008830261192b7fffffffffffffffffffffffffffffffffffffffffffffffffffffffffffffffff826118ee565b61193586836118ee565b95508019841693508086168417925050509392505050565b6000819050919050565b600061197261196d61196884610d9b565b61194d565b610d9b565b9050919050565b6000819050919050565b61198c83611957565b6119a061199882611979565b8484546118fb565b825550505050565b600090565b6119b56119a8565b6119c0818484611983565b505050565b5b818110156119e4576119d96000826119ad565b6001810190506119c6565b5050565b601f821115611a29576119fa816118c9565b611a03846118de565b81016020851015611a12578190505b611a26611a1e856118de565b8301826119c5565b50505b505050565b600082821c905092915050565b6000611a4c60001984600802611a2e565b1980831691505092915050565b6000611a658383611a3b565b9150826002028217905092915050565b611a7e82611030565b67ffffffffffffffff811115611a9757611a9661117a565b5b611aa182546116a2565b611aac8282856119e8565b600060209050601f831160018114611adf5760008415611acd578287015190505b611ad78582611a59565b865550611b3f565b601f198416611aed866118c9565b60005b82811015611b1557848901518255600182019150602085019450602081019050611af0565b86831015611b325784890151611b2e601f891682611a3b565b8355505b6001600288020188555050505b505050505050565b6000611b5282610d9b565b91507fffffffffffffffffffffffffffffffffffffffffffffffffffffffffffffffff8203611b8457611b83611719565b5b600182019050919050565b6000611b9a82610d9b565b9150611ba583610d9b565b9250828203905081811115611bbd57611bbc611719565b5b92915050565b7f4e487b7100000000000000000000000000000000000000000000000000000000600052603260045260246000fdfea2646970667358221220d79ca5580b75cf74e6e909112f4237b0bc4e0a05f92fc9a72959b3670363d23464736f6c63430008180033",
  "linkReferences": {},
  "deployedLinkReferences": {}
}